{
  "contractName": "DAO",
  "abi": [
    {
      "inputs": [
        {
          "internalType": "address",
          "name": "_token",
          "type": "address"
        }
      ],
      "stateMutability": "nonpayable",
      "type": "constructor"
    },
    {
      "inputs": [],
      "name": "owner",
      "outputs": [
        {
          "internalType": "address",
          "name": "",
          "type": "address"
        }
      ],
      "stateMutability": "view",
      "type": "function"
    },
    {
      "inputs": [
        {
          "internalType": "bytes32",
          "name": "",
          "type": "bytes32"
        }
      ],
      "name": "proposals",
      "outputs": [
        {
          "internalType": "address",
          "name": "author",
          "type": "address"
        },
        {
          "internalType": "bytes32",
          "name": "hash",
          "type": "bytes32"
        },
        {
          "internalType": "uint256",
          "name": "createdAt",
          "type": "uint256"
        },
        {
          "internalType": "uint256",
          "name": "votesYes",
          "type": "uint256"
        },
        {
          "internalType": "uint256",
          "name": "votesNo",
          "type": "uint256"
        },
        {
          "internalType": "enum DAO.Status",
          "name": "status",
          "type": "uint8"
        }
      ],
      "stateMutability": "view",
      "type": "function"
    },
    {
      "inputs": [
        {
          "internalType": "address",
          "name": "",
          "type": "address"
        }
      ],
      "name": "shares",
      "outputs": [
        {
          "internalType": "uint256",
          "name": "",
          "type": "uint256"
        }
      ],
      "stateMutability": "view",
      "type": "function"
    },
    {
      "inputs": [],
      "name": "token",
      "outputs": [
        {
          "internalType": "contract IERC20",
          "name": "",
          "type": "address"
        }
      ],
      "stateMutability": "view",
      "type": "function"
    },
    {
      "inputs": [],
      "name": "totalShares",
      "outputs": [
        {
          "internalType": "uint256",
          "name": "",
          "type": "uint256"
        }
      ],
      "stateMutability": "view",
      "type": "function"
    },
    {
      "inputs": [
        {
          "internalType": "address",
          "name": "",
          "type": "address"
        },
        {
          "internalType": "bytes32",
          "name": "",
          "type": "bytes32"
        }
      ],
      "name": "votes",
      "outputs": [
        {
          "internalType": "bool",
          "name": "",
          "type": "bool"
        }
      ],
      "stateMutability": "view",
      "type": "function"
    },
    {
      "inputs": [
        {
          "internalType": "uint256",
          "name": "amount",
          "type": "uint256"
        }
      ],
      "name": "deposit",
      "outputs": [],
      "stateMutability": "nonpayable",
      "type": "function"
    },
    {
      "inputs": [
        {
          "internalType": "uint256",
          "name": "amount",
          "type": "uint256"
        }
      ],
      "name": "withdraw",
      "outputs": [],
      "stateMutability": "nonpayable",
      "type": "function"
    },
    {
      "inputs": [
        {
          "internalType": "bytes32",
          "name": "proposalhash",
          "type": "bytes32"
        }
      ],
      "name": "createProposal",
      "outputs": [],
      "stateMutability": "nonpayable",
      "type": "function"
    },
    {
      "inputs": [
        {
          "internalType": "bytes32",
          "name": "proposalhash",
          "type": "bytes32"
        },
        {
          "internalType": "enum DAO.Side",
          "name": "side",
          "type": "uint8"
        }
      ],
      "name": "vote",
      "outputs": [],
      "stateMutability": "nonpayable",
      "type": "function"
    }
  ],
  "bytecode": "0x60806040523480156200001157600080fd5b50604051620015793803806200157983398181016040528101906200003791906200012a565b80600460006101000a81548173ffffffffffffffffffffffffffffffffffffffff021916908373ffffffffffffffffffffffffffffffffffffffff16021790555033600560006101000a81548173ffffffffffffffffffffffffffffffffffffffff021916908373ffffffffffffffffffffffffffffffffffffffff160217905550506200015c565b600080fd5b600073ffffffffffffffffffffffffffffffffffffffff82169050919050565b6000620000f282620000c5565b9050919050565b6200010481620000e5565b81146200011057600080fd5b50565b6000815190506200012481620000f9565b92915050565b600060208284031215620001435762000142620000c0565b5b6000620001538482850162000113565b91505092915050565b61140d806200016c6000396000f3fe608060405234801561001057600080fd5b506004361061009e5760003560e01c80638da5cb5b116100665780638da5cb5b1461015e578063b6b55f251461017c578063c9a28cb914610198578063ce7c2ac2146101b4578063fc0c546a146101e45761009e565b80631db5ade8146100a35780632542bf06146100d35780632e1a7d4d146100ef57806332ed5b121461010b5780633a98ef3914610140575b600080fd5b6100bd60048036038101906100b89190610b9f565b610202565b6040516100ca9190610bfa565b60405180910390f35b6100ed60048036038101906100e89190610c15565b610231565b005b61010960048036038101906101049190610c78565b610425565b005b61012560048036038101906101209190610c15565b6105ba565b60405161013796959493929190610d49565b60405180910390f35b610148610623565b6040516101559190610daa565b60405180910390f35b610166610629565b6040516101739190610dc5565b60405180910390f35b61019660048036038101906101919190610c78565b61064f565b005b6101b260048036038101906101ad9190610e05565b610764565b005b6101ce60048036038101906101c99190610e45565b610ac8565b6040516101db9190610daa565b60405180910390f35b6101ec610ae0565b6040516101f99190610ed1565b60405180910390f35b60016020528160005260406000206020528060005260406000206000915091509054906101000a900460ff1681565b68056bc75e2d63100000600260003373ffffffffffffffffffffffffffffffffffffffff1673ffffffffffffffffffffffffffffffffffffffff1681526020019081526020016000205410156102bc576040517f08c379a00000000000000000000000000000000000000000000000000000000081526004016102b390610f6f565b60405180910390fd5b6000801b6000808381526020019081526020016000206001015414610316576040517f08c379a000000000000000000000000000000000000000000000000000000000815260040161030d90610fdb565b60405180910390fd5b6040518060c001604052803373ffffffffffffffffffffffffffffffffffffffff16815260200182815260200142815260200160008152602001600081526020016000600281111561036b5761036a610cd2565b5b81525060008083815260200190815260200160002060008201518160000160006101000a81548173ffffffffffffffffffffffffffffffffffffffff021916908373ffffffffffffffffffffffffffffffffffffffff1602179055506020820151816001015560408201518160020155606082015181600301556080820151816004015560a08201518160050160006101000a81548160ff0219169083600281111561041a57610419610cd2565b5b021790555090505050565b80600260003373ffffffffffffffffffffffffffffffffffffffff1673ffffffffffffffffffffffffffffffffffffffff1681526020019081526020016000205410156104a7576040517f08c379a000000000000000000000000000000000000000000000000000000000815260040161049e90611047565b60405180910390fd5b80600260003373ffffffffffffffffffffffffffffffffffffffff1673ffffffffffffffffffffffffffffffffffffffff16815260200190815260200160002060008282546104f69190611096565b92505081905550806003600082825461050f9190611096565b92505081905550600460009054906101000a900473ffffffffffffffffffffffffffffffffffffffff1673ffffffffffffffffffffffffffffffffffffffff1663a9059cbb33836040518363ffffffff1660e01b81526004016105739291906110ca565b6020604051808303816000875af1158015610592573d6000803e3d6000fd5b505050506040513d601f19601f820116820180604052508101906105b6919061111f565b5050565b60006020528060005260406000206000915090508060000160009054906101000a900473ffffffffffffffffffffffffffffffffffffffff16908060010154908060020154908060030154908060040154908060050160009054906101000a900460ff16905086565b60035481565b600560009054906101000a900473ffffffffffffffffffffffffffffffffffffffff1681565b80600260003373ffffffffffffffffffffffffffffffffffffffff1673ffffffffffffffffffffffffffffffffffffffff168152602001908152602001600020600082825461069e919061114c565b9250508190555080600360008282546106b7919061114c565b92505081905550600460009054906101000a900473ffffffffffffffffffffffffffffffffffffffff1673ffffffffffffffffffffffffffffffffffffffff166323b872dd3330846040518463ffffffff1660e01b815260040161071d939291906111a2565b6020604051808303816000875af115801561073c573d6000803e3d6000fd5b505050506040513d601f19601f82011682018060405250810190610760919061111f565b5050565b6000806000848152602001908152602001600020905060001515600160003373ffffffffffffffffffffffffffffffffffffffff1673ffffffffffffffffffffffffffffffffffffffff168152602001908152602001600020600085815260200190815260200160002060009054906101000a900460ff1615151461081e576040517f08c379a000000000000000000000000000000000000000000000000000000000815260040161081590611225565b60405180910390fd5b6000801b600080858152602001908152602001600020600101541415610879576040517f08c379a000000000000000000000000000000000000000000000000000000000815260040161087090611291565b60405180910390fd5b62093a80816002015461088c919061114c565b4211156108ce576040517f08c379a00000000000000000000000000000000000000000000000000000000081526004016108c5906112fd565b60405180910390fd5b60018060003373ffffffffffffffffffffffffffffffffffffffff1673ffffffffffffffffffffffffffffffffffffffff168152602001908152602001600020600085815260200190815260200160002060006101000a81548160ff0219169083151502179055506000600181111561094a57610949610cd2565b5b82600181111561095d5761095c610cd2565b5b1415610a1557600260003373ffffffffffffffffffffffffffffffffffffffff1673ffffffffffffffffffffffffffffffffffffffff168152602001908152602001600020548160030160008282546109b6919061114c565b925050819055506032600354606483600301546109d3919061131d565b6109dd91906113a6565b10610a105760018160050160006101000a81548160ff02191690836002811115610a0a57610a09610cd2565b5b02179055505b610ac3565b600260003373ffffffffffffffffffffffffffffffffffffffff1673ffffffffffffffffffffffffffffffffffffffff16815260200190815260200160002054816004016000828254610a68919061114c565b92505081905550603260035460648360040154610a85919061131d565b610a8f91906113a6565b10610ac25760028160050160006101000a81548160ff02191690836002811115610abc57610abb610cd2565b5b02179055505b5b505050565b60026020528060005260406000206000915090505481565b600460009054906101000a900473ffffffffffffffffffffffffffffffffffffffff1681565b600080fd5b600073ffffffffffffffffffffffffffffffffffffffff82169050919050565b6000610b3682610b0b565b9050919050565b610b4681610b2b565b8114610b5157600080fd5b50565b600081359050610b6381610b3d565b92915050565b6000819050919050565b610b7c81610b69565b8114610b8757600080fd5b50565b600081359050610b9981610b73565b92915050565b60008060408385031215610bb657610bb5610b06565b5b6000610bc485828601610b54565b9250506020610bd585828601610b8a565b9150509250929050565b60008115159050919050565b610bf481610bdf565b82525050565b6000602082019050610c0f6000830184610beb565b92915050565b600060208284031215610c2b57610c2a610b06565b5b6000610c3984828501610b8a565b91505092915050565b6000819050919050565b610c5581610c42565b8114610c6057600080fd5b50565b600081359050610c7281610c4c565b92915050565b600060208284031215610c8e57610c8d610b06565b5b6000610c9c84828501610c63565b91505092915050565b610cae81610b2b565b82525050565b610cbd81610b69565b82525050565b610ccc81610c42565b82525050565b7f4e487b7100000000000000000000000000000000000000000000000000000000600052602160045260246000fd5b60038110610d1257610d11610cd2565b5b50565b6000819050610d2382610d01565b919050565b6000610d3382610d15565b9050919050565b610d4381610d28565b82525050565b600060c082019050610d5e6000830189610ca5565b610d6b6020830188610cb4565b610d786040830187610cc3565b610d856060830186610cc3565b610d926080830185610cc3565b610d9f60a0830184610d3a565b979650505050505050565b6000602082019050610dbf6000830184610cc3565b92915050565b6000602082019050610dda6000830184610ca5565b92915050565b60028110610ded57600080fd5b50565b600081359050610dff81610de0565b92915050565b60008060408385031215610e1c57610e1b610b06565b5b6000610e2a85828601610b8a565b9250506020610e3b85828601610df0565b9150509250929050565b600060208284031215610e5b57610e5a610b06565b5b6000610e6984828501610b54565b91505092915050565b6000819050919050565b6000610e97610e92610e8d84610b0b565b610e72565b610b0b565b9050919050565b6000610ea982610e7c565b9050919050565b6000610ebb82610e9e565b9050919050565b610ecb81610eb0565b82525050565b6000602082019050610ee66000830184610ec2565b92915050565b600082825260208201905092915050565b7f6e6f7420656e6f7567682073686172657320746f206372656174652070726f7060008201527f6f73616c00000000000000000000000000000000000000000000000000000000602082015250565b6000610f59602483610eec565b9150610f6482610efd565b604082019050919050565b60006020820190508181036000830152610f8881610f4c565b9050919050565b7f70726f706f73616c20616c726561647920657869737473000000000000000000600082015250565b6000610fc5601783610eec565b9150610fd082610f8f565b602082019050919050565b60006020820190508181036000830152610ff481610fb8565b9050919050565b7f6e6f7420656e6f75676820736861726573000000000000000000000000000000600082015250565b6000611031601183610eec565b915061103c82610ffb565b602082019050919050565b6000602082019050818103600083015261106081611024565b9050919050565b7f4e487b7100000000000000000000000000000000000000000000000000000000600052601160045260246000fd5b60006110a182610c42565b91506110ac83610c42565b9250828210156110bf576110be611067565b5b828203905092915050565b60006040820190506110df6000830185610ca5565b6110ec6020830184610cc3565b9392505050565b6110fc81610bdf565b811461110757600080fd5b50565b600081519050611119816110f3565b92915050565b60006020828403121561113557611134610b06565b5b60006111438482850161110a565b91505092915050565b600061115782610c42565b915061116283610c42565b9250827fffffffffffffffffffffffffffffffffffffffffffffffffffffffffffffffff0382111561119757611196611067565b5b828201905092915050565b60006060820190506111b76000830186610ca5565b6111c46020830185610ca5565b6111d16040830184610cc3565b949350505050565b7f616c726561647920766f74656400000000000000000000000000000000000000600082015250565b600061120f600d83610eec565b915061121a826111d9565b602082019050919050565b6000602082019050818103600083015261123e81611202565b9050919050565b7f70726f706f73616c20646f6573206e6f74206578697374000000000000000000600082015250565b600061127b601783610eec565b915061128682611245565b602082019050919050565b600060208201905081810360008301526112aa8161126e565b9050919050565b7f766f74696e6720706572696f64206f7665720000000000000000000000000000600082015250565b60006112e7601283610eec565b91506112f2826112b1565b602082019050919050565b60006020820190508181036000830152611316816112da565b9050919050565b600061132882610c42565b915061133383610c42565b9250817fffffffffffffffffffffffffffffffffffffffffffffffffffffffffffffffff048311821515161561136c5761136b611067565b5b828202905092915050565b7f4e487b7100000000000000000000000000000000000000000000000000000000600052601260045260246000fd5b60006113b182610c42565b91506113bc83610c42565b9250826113cc576113cb611377565b5b82820490509291505056fea264697066735822122025f0aea64b992042549b023f5b53a104beb7c7215159d6d3a192231fc11aa98164736f6c634300080b0033",
  "immutableReferences": {},
  "source": "pragma solidity ^0.8.0;\n\nimport '@openzeppelin/contracts/token/ERC20/IERC20.sol';\n\ncontract DAO {\n    enum Side { Yes, No }\n    enum Status{ Undecided, Approved, Rejected }\n    struct Proposal {\n        address author;\n        bytes32 hash;\n        uint createdAt;\n        uint votesYes;\n        uint votesNo;\n        Status status;\n    }\n    mapping(bytes32 => Proposal) public proposals;\n    mapping(address => mapping(bytes32 => bool)) public votes;\n    mapping(address => uint) public shares;\n    uint public totalShares;\n    IERC20 public token;\n    address public owner;\n    uint constant CREATE_PROPOSAL_MIN_SHARE = 100 * 10 ** 18;\n    uint constant VOTING_PERIOD = 7 days;\n\n    constructor(address _token) {\n        token = IERC20(_token);\n        owner = msg.sender;\n    }\n\n    function deposit(uint amount) external {\n        shares[msg.sender] += amount;\n        totalShares += amount;\n        token.transferFrom(msg.sender, address(this), amount);\n    }\n\n    function withdraw(uint amount) external {\n        require(shares[msg.sender] >= amount, 'not enough shares');\n        shares[msg.sender] -= amount;\n        totalShares -= amount;\n        token.transfer(msg.sender, amount);\n    }\n\n    function createProposal(bytes32 proposalhash) external {\n        require(shares[msg.sender] >= CREATE_PROPOSAL_MIN_SHARE, 'not enough shares to create proposal');\n        require(proposals[proposalhash].hash == bytes32(0), 'proposal already exists');\n        proposals[proposalhash] = Proposal(\n            msg.sender,\n            proposalhash,\n            block.timestamp,\n            0,\n            0,\n            Status.Undecided\n        );\n    }\n\n    function vote(bytes32 proposalhash, Side side) external {\n        Proposal storage proposal = proposals[proposalhash];\n        require(votes[msg.sender][proposalhash] == false, 'already voted');\n        require(proposals[proposalhash].hash != bytes32(0), 'proposal does not exist');       \n        require(block.timestamp <= proposal.createdAt + VOTING_PERIOD, 'voting period over');\n        votes[msg.sender][proposalhash] = true;\n        if(side == Side.Yes) {\n            proposal.votesYes += shares[msg.sender];\n            if(proposal.votesYes * 100 / totalShares >= 50){\n                proposal.status = Status.Approved;\n            }\n        } else {\n            proposal.votesNo += shares[msg.sender];\n            if(proposal.votesNo * 100 / totalShares >= 50){\n                proposal.status = Status.Rejected;\n            }\n        }\n        \n    }\n}",
  "sourcePath": "/mnt/c/users/yashi/OneDrive/Desktop/Solidity Projects/Dao_New/contracts/DAO.sol",
  "compiler": {
    "name": "solc",
    "version": "0.8.11+commit.d7f03943.Emscripten.clang"
  },
  "schemaVersion": "3.4.5",
  "updatedAt": "2022-03-15T12:34:24.075Z",
  "devdoc": {
    "kind": "dev",
    "methods": {},
    "version": 1
  },
  "userdoc": {
    "kind": "user",
    "methods": {},
    "version": 1
  }
}